:020000022000DC
:1070000000000420A56D0300CD6D0300CF6D0300CB
:10701000D16D0300D36D0300D56D030000000000A7
:10702000000000000000000000000000D76D030019
:10703000D96D030000000000000000000000000007
:107040000D510500DB6D03008D6F0500E556050051
:10705000DB6D03004D4D0500254B05003D3306005B
:10706000DB6D03002556050039560500DB6D030076
:10707000DB6D0300DB6D0300DB6D0300DB6D0300E4
:107080004140060025230500DB6D0300DB6D030096
:10709000DB6D0300DB6D0300C5290600DB6D03001B
:1070A000DB6D0300DB6D03004D56050061560500E6
:1070B000DB6D0300DB6D030000000000000000003A
:1070C000DB6D0300DB6D0300DB6D03007938060028
:1070D0003D530500DB6D0300DB6D03009D6C050077
:1070E000156D0600DB6D03005594060000000000DE
:1070F00000000000DB6D030000000000493C0600BA
:10710000000000000000000000000000000000007F
:10711000000000000000000000000000000000006F
:10712000000000000000000000000000000000005F
:10713000000000000000000000000000000000004F
:10714000000000000000000000000000000000003F
:10715000000000000000000000000000000000002F
:10716000000000000000000000000000000000001F
:10717000000000000000000000000000000000000F
:1071800000000000000000000000000000000000FF
:1071900000000000000000000000000000000000EF
:1071A00000000000000000000000000000000000DF
:1071B00000000000000000000000000000000000CF
:1071C00000000000000000000000000000000000BF
:1071D00000000000000000000000000000000000AF
:1071E000000000000000000000000000000000009F
:1071F000000000000000000000000000000000008F
:1072000010B5054C237833B9044B13B10448AFF3E0
:1072100000800123237010BD80D4002000000000F6
:10722000B8D5070008B5034B1BB103490348AFF3BA
:10723000008008BD0000000084D40020B8D50700FD
:10724000154B002B08BF134B9D46A3F5803A002138
:107250008B460F461348144A121A0DF0B7FA0F4B1B
:10726000002B00D098470E4B002B00D098470020F1
:10727000002104000D000D48002802D00C48AFF397
:1072800000800DF053FA200029000CF0DDFF0DF016
:1072900039FA00BF000008000000042000000000D0
:1072A0000000000080D4002094C1012000000000F4
:1072B000000000000022C0E900220172704738B5CA
:1072C0000446006820B185690FF034FD2846F9E7CF
:1072D000204638BD006820B143688B4201D08069E8
:1072E000F9E77047F8B504460F4616461D46FFF706
:1072F000F1FF20B10123826005704370F8BD1C20AE
:107300000FF01CFD012343700023C0E90333C0E9E3
:10731000053323680570C0E9017613B92060606009
:10732000ECE763689861FAE72DE9F8430468164FC3
:1073300005460E464FF000081CB363680BB9A469FC
:10734000FAE72378002BFAD0E368A268F31A9A428E
:1073500002D961780029F2D09B1A636184F8018018
:10736000E66011F067FB63688146984711F062FBA5
:107370003B68A0EB0900206118442B7A3860002B91
:10738000DDD0BDE8F88300BF9CD4002008B5074BD2
:1073900050B103221A700648FA22012110F0C7FFEB
:1073A000044B00221A7008BD0522F3E7A0D4002088
:1073B00071DF0020ECD50020054B064800221A7032
:1073C000054B08221A700121FA2210F0B0BF00BF4D
:1073D000ECD5002071DF0020A0D4002084B004ABE5
:1073E00003E907000B4BBDF90A201A800A4B9DF9EF
:1073F0000C201A70094A0A48136801331360094BBC
:1074000000221A70084B0121FA22197004B010F002
:107410008EBF00BFD0D40020D2D40020E8D50020F9
:1074200071DF0020ECD50020A0D40020124B0022F8
:107430001A70124B1B7A022B1DD0114B90F90620AB
:107440001A70104BB0F904201A800F4A0378137099
:107450000E4A417811700E4A817811701BB10D4AA5
:107460001368013313600C4B0C4804221A7001217D
:10747000FA2210F05CBF7047ECD50020CCA20020AF
:10748000D2D40020D0D40020D5D50020D3D50020E0
:10749000D4D50020E4D50020A0D4002071DF002046
:1074A000F0B5654C654D237A654F0126022B85B0FA
:1074B0002E7040F0F180634806F027FAA37A002B83
:1074C00000F0A3803B78604F3978002976D143B330
:1074D0005E4B1B782BBB05F07BFC5D4805F052FB37
:1074E0005C4805F017FCA37ADBB95B4A5B495C4852
:1074F00011F0DCF95B495A4811F0D8F95A4958485B
:1075000011F0D4F95749594811F0D0F95649574864
:1075100011F0CCF964201BF033F83146222011F031
:1075200078FA04F025FE064660B3464806F0F0F906
:107530000390444806F0EEF901230721CDE900311C
:10754000024603994A4810F0F1FC0446C0B9424A89
:107550004249434811F0AAF94649414811F0A6F9B9
:1075600041493F4811F0A2F94249404811F09EF9C3
:107570003D493E4811F09AF964201BF001F82C7047
:1075800005B0F0BD01232F483B7006F0BEF93A4B21
:107590003A481E8041F288326368B3FBF2F3384AFE
:1075A0001380384B1E70384B40F6C4121E700321F6
:1075B000334605B0BDE8F04010F0B9BE53B1234BDF
:1075C0001B783BB905F004FC214805F0DBFA2F4895
:1075D00005F0A0FB204A2149214811F067F92C4908
:1075E0001F4811F063F920491D4811F05FF928493F
:1075F0001E4811F05BF91C491C4811F057F9642032
:1076000005B0BDE8F0401AF0BBBF3B7853B10F4B5B
:107610001B783BB905F0DCFB0D4805F0B3FA1D48BB
:1076200005F078FB00230093B7EE000A1A461946CE
:10763000044806F08DF878E7CCA20020ECD50020B5
:10764000CDD40020C4D40020CCD4002018D60020F3
:1076500018EA060029EA060044EA060048EA06009D
:1076600090DE00204EEA06005C330700F4DE0020C6
:10767000A9DF00205CEA060038D6002071DF002078
:107680003AD6002068D6002069D6002078EA0600A5
:107690008CEA0600A0EA06003B784BB1964B1E78B8
:1076A00036B905F095FB954805F06CFA944B1E70C1
:1076B000944810F034FD002800F0F580924810F056
:1076C000C7FC002800F0DF800121242011F0A1F97F
:1076D0008E4A8F498F4811F0E9F88F498D4811F093
:1076E000E5F88E498B4811F0E1F88B498C4811F090
:1076F000DDF88A498A4811F0D9F864201AF040FF71
:10770000884805F007FB884810F0DAFCB4F88C10C4
:1077100080B204F0BFFB7E49844A06467D4811F0E2
:10772000C5F8B4F88C208248039210F0A5FC3346CB
:10773000039A80490090774811F0B8F87749754866
:1077400011F0B4F8B4F88C207948039210F094FC4E
:10775000039A784900903346714811F0A7F86F49B1
:107760006F4811F0A3F864201AF00AFF704810F077
:1077700083FCB04235D36D4A6549664811F096F8EE
:107780006D49644811F092F86449624811F08EF82E
:107790006949634811F08AF86049614811F086F838
:1077A00064201AF0EDFE01230722CDE90032634880
:1077B000634A94F88C10022310F0B8FB00287FF481
:1077C000DFAE524A52492870524811F06FF85D49B5
:1077D000504811F06BF851494E4811F067F859497B
:1077E00006E73146524810F049FC4FF4FA701AF09F
:1077F000C7FE4E4A4649474811F058F84C4810F029
:107800003BFC51490246434811F050F84349414876
:1078100011F04CF8464810F02FFC4B490246404806
:1078200011F044F83D493E4811F040F864201AF048
:10783000A7FE3B786BB1304B1B7853B9434805F03A
:1078400069FA4349434832460DF020FD414805F0AE
:1078500061FA364A2E492F4811F028F8344810F0C2
:107860000BFC394902462B4811F020F82B492948D6
:1078700011F01CF82E4810F0FFFB3349024628484F
:1078800011F014F888E7214A21492870214811F0A5
:107890000DF831491F4811F009F820491D4811F031
:1078A00005F82D49A4E60121232011F0B2F8174A6A
:1078B0001749184810F0FAFF2849164810F0F6FF4B
:1078C0001649144810F0F2FF2449154810F0EEFF55
:1078D0001249134810F0EAFF64201AF051FE1148D3
:1078E00005F018FA0123164A94F88C101C4810F081
:1078F000C8FA01232B7043E618D60020ACEA060034
:10790000C1D40020CDDF0020B4DF002044EA06000F
:1079100048EA060090DE0020BDEA06005C3307005E
:10792000F4DE0020C9EA0600CADF0020D7EA06001C
:10793000B8DF0020DEEA060012EB0600A9DF002017
:10794000D7A200205CEA060042EB060059EB0600D5
:107950006BEB0600D3D4002074EB060092EB06001C
:10796000CEDF0020000000002DE9F04F2DED028B4E
:1079700000218BB0984D0446242011F04AF80021D4
:10798000232011F046F82B785BB1944B1B7843B958
:1079900005F01EFA924993480DF0A2FC914805F0BB
:1079A000F1F844B99049914810F076FF0BB0BDEC66
:1079B000028BBDE8F08F2478012C40F055812B78A4
:1079C000DFF8A0828A4F8B4E002B00F0B880834BEB
:1079D0001D78002D40F0B380874982480DF080FC6F
:1079E000804907A810F0FCFD07AA2946284605F0A3
:1079F0000BFA07A810F0AEFDD8F800207F497948AF
:107A00000DF044FC774907A810F0EAFD07AA2946C3
:107A1000204605F0F9F907A810F09CFD784810F011
:107A2000CAF946F0AFFA6AA3D3E9002346F04EFC48
:107A30000B46024673496B480DF028FC694907A8BC
:107A400010F0CEFD07AA2946022005F0DDF907A8AF
:107A500010F080FD6C4810F0BFF96C490246614897
:107A60000DF014FC5F4907A810F0BAFD07AA2946DB
:107A7000032005F0C9F907A810F06CFD644810F068
:107A8000BCF9092800F2A080DFE800F0058C8E9098
:107A9000929496989A9C5F4905A80DF021FC5C4849
:107AA00010F0ABF95C4B5D4953F820204D480DF0C8
:107AB000EDFB4C4907A810F093FD07AA40210320D5
:107AC00005F0A2F907A810F045FD554810F0A6F9F9
:107AD0005449421D43480DF0D9FB424907A810F014
:107AE0007FFD07AA4021022005F08EF907A810F0BB
:107AF00031FD3A884C493B4812B20DF0C7FB394979
:107B000007A810F06DFD07AA0021042005F07CF9FC
:107B100007A810F01FFD32784449324852B20DF0E8
:107B2000B5FB304907A810F05BFD07AA40210420EF
:107B300005F06AF907A810F00DFD05F07FF93C4942
:107B40002A4810F0A9FED8F800203B883178274851
:107B500049B21BB20091374910F0A8FE284810F036
:107B60002AF908EE100A284810F036F90446284889
:107B700010F043F9F8EE487A054617EE900A46F001
:107B800023FA13A3D3E9002346F0A0FB7D2305FBD2
:107B90000333CDE9004302460B461448264910F052
:107BA00085FE03E7254977E7254975E7254973E70A
:107BB000254971E725496FE725496DE725496BE7B9
:107BC000254969E7254967E7254965E7AFF300805F
:107BD0000000000080842E41CDD4002018D6002063
:107BE000ACEA0600D3D40020A6EB060090DE00200D
:107BF000D0D40020D2D40020B3EB0600C1EB0600A5
:107C0000D9DF002082F20600DADF0020C0FC060087
:107C1000DBDF0020D5EB060044A200200BEC0600C1
:107C2000DCDF0020D9FC060011EC060019EC060090
:107C300020EC06002DEC060049EC0600D9EB06000E
:107C4000DDEB0600E1EB0600E5EB0600EAEB0600E3
:107C5000F0EB0600F6EB0600FCEB060002EC06007B
:107C600007EC0600E8D50020032C62D12B78002B0E
:107C70003FF49CAE524B1E78002E7FF497AE514CD1
:107C8000257A002D41D0022D4CD04FF47A736268D2
:107C90004D49B2FBF3F24D480DF0F8FA4B4907A8F5
:107CA00010F09EFC07AA0021012005F0ADF807A8FE
:107CB00010F050FC464907A810F092FC002107AADA
:107CC000022005F0A1F807A810F044FC41493F4804
:107CD0000DF006FB3D4907A810F082FC002107AA21
:107CE000032005F091F807A810F034FC384907A8E4
:107CF00010F076FC07AA0021042005F085F807A8FB
:107D000010F028FC05F09AF850E6334907A810F067
:107D100067FC07AA2946084605F076F807A810F080
:107D200019FCB2E72D4907A810F05AFC07AA314602
:107D3000F1E7052C56D12B78002B3FF437AE204BC2
:107D40001E78002E7FF432AE1E4C257A25B3022D0C
:107D50002FD04FF47A7362681B49B2FBF3F21B48D1
:107D60000DF094FA194907A810F03AFC07AA00216F
:107D7000012005F049F807A810F0ECFB144907A80A
:107D800010F02EFC002107AA022005F03DF807A8FC
:107D900010F0E0FB12499AE70F4907A810F020FC09
:107DA00007AA2946084605F02FF807A810F0D2FBCD
:107DB000CFE70A4907A810F013FC07AA3146F1E7FC
:107DC00018D60020CCA200207EEC0600D3D40020E0
:107DD0007B97070091EC06005DEC06006CEC06005A
:107DE0009DEC0600042C40F0A3812B78A54FDFF812
:107DF0001CA3DFF81C93A44D002B00F0A680A34B1E
:107E00001E78002E40F0A180A14B2978A14AA248FB
:107E1000DFF800B3002918BF1A46A0490DF036FA62
:107E20009D4907A810F0DCFB07AA3146304604F054
:107E3000EBFF07A810F08EFB2A7802F0FF08002A5B
:107E400040F0A280964B97491A7893480DF01EFA9D
:107E5000914907A810F0C4FB07AA4146012004F08D
:107E6000D3FF07A810F076FB3A688F498A480DF0D7
:107E70000DFA894907A810F0B3FB07AA4146022072
:107E800004F0C2FF07A810F065FBDBF8002087496B
:107E900081480DF0FBF9804907A810F0A1FB07AA63
:107EA0004021022004F0B0FF07A810F053FB804BE4
:107EB00080491A7878480DF0E9F9774907A810F059
:107EC0008FFB07AA4146032004F09EFF07A810F08D
:107ED00041FB794810F0D0F8784902466E480DF021
:107EE000D5F96D4907A810F07BFB07AA40210320B4
:107EF00004F08AFF07A810F02DFBBAF800207049A3
:107F0000654812B20DF0C2F9634907A810F068FB8A
:107F100007AA4146204604F077FF07A810F01AFB95
:107F200099F8002067495C4852B20DF0AFF95A4900
:107F300007A810F055FB204607AA402104F064FF73
:107F400007A810F007FB04F079FF2978504B514A3D
:107F50005D48002918BF1A465C4910F0A7FC3A6832
:107F6000BAF8003099F80010574849B200911BB296
:107F7000574910F09BFC4E4B56491A78484B5248D3
:107F80001B7810F093FC11E53A68474942480DF020
:107F90007DF9414907A810F023FB07AA31460120CB
:107FA00004F032FF07A810F0D5FADBF800203F49B3
:107FB00039480DF06BF9384907A810F011FB07AAF2
:107FC0004021012004F020FF07A810F0C3FA2A780E
:107FD000414931480DF05AF92F4907A810F000FB2C
:107FE00007AA3146022004F00FFF07A810F0B2FAEA
:107FF0002B78013B0F2B00F29980DFE803F0082F6C
:1080000031333537393B3D3F418D8F91939533491E
:1080100021480DF065F9204907A810F0E1FA07AAF8
:108020000021032004F0F0FE07A810F093FA224884
:1080300010F022F82A49024617480DF027F9164990
:1080400007A810F0CDFA07AA0021042004F0DCFEF6
:1080500007A810F07FFA04F0F1FE74E72149D7E792
:108060002149D5E72149D3E72149D1E72149CFE784
:108070002149CDE72149CBE72149C9E72149C7E794
:108080002149C5E7E8D50020D5D5002018D6002025
:10809000A2EB0600A3EB0600D3D40020B3EC06004D
:1080A000D3D50020C4EC0600D7EC0600DFEC0600B8
:1080B000D4D50020E7EC0600B8DF0020E4ED060090
:1080C00011EC060019EC060090DE0020EAED060037
:1080D0002DEC0600F8ED0600F0EC060005ED0600BC
:1080E000E1ED060013ED06001EED06002AED060088
:1080F00036ED060040ED060091EC06004AED060064
:108100005EED060071ED060081ED0600D0D4002082
:10811000D2D40020E4D50020A84979E7A84977E720
:10812000A84975E7A84973E7A84971E7A8496FE727
:10813000A84B1B78062B40F01081A74AA749D67898
:1081400092F80180977892F90590A548C6EB4613FE
:1081500006EB83061379C3EB431403EB8404A8F105
:10816000C808C83F4A460FFA88F83FB27600640054
:1081700010F09CFB36B29B4999483B46424624B2DC
:1081800010F094FB234698499548324610F08EFB38
:108190002B78002B3FF40AAC944B1D78002D7FF414
:1081A00005AC04F015FE924804F0ECFC914B9249AA
:1081B0001A78924B92481B8852B21BB20DF066F8A7
:1081C0008F4907A810F00CFA07AA2946284604F0A0
:1081D0001BFE07A810F0BEF94A468A4988480DF0F0
:1081E00055F8874907A810F0FBF907AA294601208E
:1081F00004F00AFE07A810F0ADF9834907A810F0B3
:10820000EFF907AA3221012004F0FEFD07A810F0C3
:10821000A1F97E4907A810F0E3F907AA502101202F
:1082200004F0F2FD07A810F095F9794907A810F0BD
:10823000D7F907AA2946022004F0E6FD07A810F0A6
:1082400089F9744907A810F0CBF907AA2946032039
:1082500004F0DAFD07A810F07DF942466E4968483F
:108260000DF014F8664907A810F0BAF907AA3221F0
:10827000022004F0C9FD07A810F06CF93A466649DF
:108280005F480DF003F85E4907A810F0A9F907AAA6
:108290003221032004F0B8FD07A810F05BF95F4B12
:1082A0009F7A002F37D032465B4955480CF0EEFFDD
:1082B000534907A810F094F907AA5021022004F0AE
:1082C000A3FD07A810F046F9224653494C480CF08C
:1082D000DDFF4B4907A810F083F907AA50210320BE
:1082E00004F092FD07A810F035F94D4B18684D4B7E
:1082F0001C6845F069FE02460B46CDE90223204684
:1083000045F062FEDDE90223CDE9000146493C4823
:108310000CF0BCFF1FE0454939480CF0E1FF38493B
:1083200007A810F05DF907AA5021022004F06CFDA7
:1083300007A810F00FF9324907A810F051F95021A1
:1083400007AA032004F060FD07A810F003F93849DC
:108350002B480CF0C5FF2A49C9E4072B6ED13549DB
:108360001F4810F0A3FA2B78002B3FF41FAB1F4BD4
:108370001C78002C7FF41AAB04F02AFD1C4804F092
:1083800001FC2D491E480CF0ABFF1D4907A810F059
:1083900027F907AA2146204604F036FD07A810F069
:1083A000D9F81F4B18681F4B1D6845F00DFE02469B
:1083B0000B46CDE902232846A2E700BF8EED06005A
:1083C00098ED0600A8ED0600B6ED0600C2ED060029
:1083D000D3ED0600A0D40020A1D4002011EE0600A9
:1083E00090DE00202FEE060048EE060018D6002092
:1083F00065EE0600D2D4002075EE0600D0D4002031
:10840000D3D400208CEE06000A44070097EE060045
:10841000A0EE0600A4EE0600D4EC0600CCA20020DC
:1084200048D600204CD60020A8EE0600BDEE06007F
:10843000B4EE0600C0EE0600DEEE0600082B7FF468
:10844000B5AA1049104810F031FA104B00221A70EA
:108450002B78002B3FF4AAAA0D4B1B78002B7FF43E
:10846000A5AA04F0B5FC0B4804F08CFB0A490B48A4
:108470000CF036FF094907A810F0B2F8002107AA4E
:1084800008463AE4F3EE060090DE0020ECD500202A
:1084900018D60020ACEA060009EF0600D3D400206D
:1084A00070B5314BB0F90A201A80304B90F90C208E
:1084B0001A702F4B42781A702E4A136801331360DA
:1084C0002D4B00221A7003780446CBB92B4A2C4955
:1084D0002C4810F0EBF92C492A4810F0E7F92B4909
:1084E000284810F0E3F92849294810F0DFF9274916
:1084F000274810F0DBF9BDE8704064201AF040B85E
:10850000244A127A022A25D1022B0FD1224D027A57
:108510004168224806232B700CF04AF92B46FA22B8
:108520000121BDE870401E480FF001BF134A1449F5
:10853000144810F0BBF922781A49124810F0B6F925
:108540001249104810F0B2F922781649104810F07C
:10855000ADF9CCE7144B1B7823B90F4B01211970EF
:10856000FA22DEE770BD00BFD0D40020D2D40020B4
:10857000CED40020E8D50020ECD5002019EF06006D
:1085800048EA060090DE00201FEF06005C3307007B
:10859000F4DE0020CCA20020A0D40020A1D4002032
:1085A00071DF002027EF060095A1002010B50446DA
:1085B00005F0A4F9204610BD70B50446002836D059
:1085C0001B4B1C4A1C491D4800251D7010F06EF9FC
:1085D0002A461B49194810F069F91A49174810F042
:1085E00065F92A461649184810F060F915491648E9
:1085F00010F05CF9642019F0C3FF144B1C60144B9D
:108600001B7A022B09D1134B07221A70BDE8704068
:108610001148FA2201210FF08ABE104B1B7833B9A2
:108620000F4A1368013313600A4B0222EDE770BD55
:10863000ECD5002044EA060048EA060090DE00205F
:1086400036EF06005C330700F4DE0020F0D5002092
:10865000CCA20020A0D4002071DF002095A1002032
:10866000E4D5002008B5064B1B783BB110F0DDF9CE
:10867000BDE8084001460348FEF756BE08BD00BFEE
:1086800019D60020D8D5002007B5274A2749284801
:1086900010F00CF92749264810F008F9264924481B
:1086A00010F004F92349254810F000F92249234825
:1086B00010F0FCF8642019F063FF214A21480123DF
:1086C0001370214A13700FF0F4FB18B11F480021FA
:1086D0000FF0B9FB1E480FF026FD1E491E480FF093
:1086E0004BFC1E491C480FF057FC1D491A480FF05F
:1086F0004BFC1C4918480FF057FC00211A480FF09A
:1087000091FC022119480FF0FBFC01223223009357
:1087100011460A2310480FF0EEFB0021222003B07F
:108720005DF804EB10F075B944EA060048EA06006B
:1087300090DE002045EF06005C330700F4DE0020E9
:1087400095A10020E4DF002094A10020CEDF0020CE
:10875000CDDF0020A1840200A9DF0020B98502003E
:108760008D7302002D740200B1DF0020CBDF0020EA
:1087700008B5264A2649274810F098F82649254882
:1087800010F094F82549234810F090F82249244825
:1087900010F08CF82149224810F088F8642019F074
:1087A000EFFE204B2048002119700FF04CFB1F48B2
:1087B0000FF083FBB8B9154A1549164810F076F842
:1087C0001B49144810F072F81449124810F06EF862
:1087D0001749134810F06AF81049114810F066F86C
:1087E000642019F0CDFE13490F480FF073FB1249B6
:1087F0000D480FF077FB4FF6FD710B480FF023FB90
:10880000BDE808400021222010F003B944EA060028
:1088100048EA060090DE00205AEF06005C330700AD
:10882000F4DE002094A10020CEDF0020E4DF002051
:1088300069EF0600DD730200B97302001D4B07B536
:1088400001221D481A700FF034FB18B11B4800219B
:108850000FF0F9FA1A480FF066FC1A491A480FF09F
:108860008BFB1A4918480FF097FB194916480FF06F
:108870008BFB184914480FF097FB002116480FF0A6
:10888000D1FB002115480FF03BFC3223012200935D
:108890000D480A2311460FF02EFB114B9B7A33B182
:1088A0000121222003B05DF804EB10F0B2B803B050
:1088B0005DF804FB94A10020E4DF0020CEDF00205F
:1088C000CDDF0020A1840200A9DF0020B9850200CD
:1088D0008D7302002D740200B1DF0020CBDF002079
:1088E000CCA2002010B50B4C00212046FEF7E2FC84
:1088F0002046094C094A0A490BF0F0FEFF212046A8
:1089000004F0F0FF2046054A0649BDE810400BF090
:10891000E5BE00BFD8D50020C4D4002090A100201F
:10892000BF720200AD8502002DE9F04F012187B032
:10893000222010F057F80121232010F053F80121D4
:10894000242010F04FF80021222010F062F82C486B
:108950002C4D022306224FF4E1310FF0B9F9012327
:10896000022229490093294800230CF08FFC274953
:1089700003A80FF035FE03A925480FF081FC03A8DA
:108980000FF0E8FD23480FF0D5FE04F0C7F828707B
:1089900030B121491D480CF0A3FC1C4804F0F2F84A
:1089A0000121232010F035F84FF08043D3F83834FC
:1089B000032B33D010F039F8DFF844A004464FF011
:1089C000000B41F287384FF0000950460FF065F96F
:1089D00020BB10F02AF8061B6BEB4B07B04579EB78
:1089E00007031BDB642019F0CBFD232010F016F8E1
:1089F000B0FA80F14909232010F00BF8E5E700BF39
:108A000090DE0020CDD4002080EF0600D3D40020DB
:108A100018DF0020ECDF0020ACEA06000021232054
:108A20000FF0F7FF002124200FF0F3FF2B78BBB9E4
:108A3000AB4AAC49AC480FF039FFAC49AA480FF03B
:108A400035FFAB49A8480FF031FFA849A9480FF0FE
:108A50002DFFA749A7480FF029FF642019F090FDCA
:108A600002F054FCB8B99E4A9E499F480FF01EFF81
:108A7000A1499D480FF01AFF9D499B480FF016FF32
:108A80009D499C480FF012FF99499A480FF00EFF3C
:108A9000642019F075FD02F0F7FBB8B9904A9149CE
:108AA00091480FF003FF95498F480FF0FFFE904962
:108AB0008D480FF0FBFE91498E480FF0F7FE8C4970
:108AC0008C480FF0F3FE642019F05AFD02F0F2FB1F
:108AD000B8B9834A834984480FF0E8FE8849824840
:108AE0000FF0E4FE824980480FF0E0FE844981489F
:108AF0000FF0DCFE7E497F480FF0D8FE642019F0AD
:108B00003FFD02F0EDFBB8B9754A764976480FF0A3
:108B1000CDFE7C4974480FF0C9FE754972480FF0CC
:108B2000C5FE784973480FF0C1FE714971480FF0D6
:108B3000BDFE642019F024FD02F0C8FFB8B9684AF0
:108B4000684969480FF0B2FE6F4967480FF0AEFE02
:108B5000674965480FF0AAFE6B4966480FF0A6FE0C
:108B6000634964480FF0A2FE642019F009FD00F08B
:108B7000B1FCB8B95A4A5B495B480FF097FE6349AC
:108B800059480FF093FE5A4957480FF08FFE5F493E
:108B900058480FF08BFE564956480FF087FE642068
:108BA00019F0EEFC5A4C002000F06EFB237A4C4A80
:108BB0004C494D48032B40F0F2800FF077FE5549A9
:108BC00049480FF073FE4A4947480FF06FFE51497C
:108BD00048480FF06BFE464946480FF067FE642098
:108BE00019F0CEFC012003F067F9237A012B00F085
:108BF000ED80022B00F0F3803BB347493A480FF079
:108C00004BFE2B780BB3454945480CF069FB4449B2
:108C100003A80FF0E5FC002103AA084604F0F4F8CD
:108C200003A80FF097FC3F493D480CF059FB3C4925
:108C300003A80FF0D5FC03AA0021012004F0E4F8FA
:108C400003A80FF087FC04F0F9F8374804F062F845
:108C500036480FF0FDF910B9354804F05BF8FFF71E
:108C600013FD4FF47A73334962682D48B2FBF3F277
:108C70000CF00CFB2A4804F04DF82F4A2F48012332
:108C800000210FF04AFB626822B100232B481946ED
:108C90000FF04DFB2A4A2948002301210FF03DFB2C
:108CA0000023284A254802210FF037FB637A33B1AD
:108CB000224800234EF6602202210FF038FB0123E8
:108CC000214A1E4803210FF028FB204B1B78002B64
:108CD00046D016480FF0BCF9002841D138E000BF5B
:108CE00044EA060048EA060090DE002096EF0600FF
:108CF0005C330700F4DE0020A4EF0600CBEF060093
:108D0000F9EF060023F0060051F0060076F00600A9
:108D1000CCA2002092F00600BCF00600DDF00600B8
:108D2000D3D40020EFF006005DEC0600B4DF002095
:108D3000FFF006007EEC0600A174020071DF002047
:108D40006979020091CE020031C6020094A1002090
:108D500032230122009328480A2311460FF0CBF852
:108D6000264A274927480FF0A1FD274925480FF03B
:108D70009DFD264923480FF099FD234924480FF013
:108D800095FD224922480FF091FD642019F0F8FB6F
:108D9000012120480FF01DFE07B0BDE8F08F0FF055
:108DA00085FD1D4917480FF081FD184915480FF042
:108DB0007DFD194916480FF079FD144914480FF04C
:108DC00075FD642019F0DCFB00200CE7FFF7D0FCF8
:108DD000124803F09FFF0C4803F09CFF41E7104846
:108DE00003F098FF0F480FF033F910B90E4803F065
:108DF00091FFFFF723FD34E7A9DF002044EA0600D6
:108E000048EA060090DE00200DF106005C33070002
:108E1000F4DE002009DF0020A6F0060024EC0600A6
:108E20006CEC0600B4DF0020FFF006007047000085
:108E30002DE9F04F944C954DDFF868A2DFF868B249
:108E400089B0204604F0C8FE204610EE107A04F0E7
:108E5000E2FE20468DED050A04F0FCFE8C4A8D49A9
:108E60008DED060A28460FF021FD204604F0B4FEE1
:108E7000204610EE108A04F0AFFE384610EE106A5D
:108E800045F0A2F8844B002245F0F6F845F0A4FB2B
:108E900007B2404645F098F880463046894602972A
:108EA00045F092F87C4B7D4E002245F0E5F84246B5
:108EB0004B46CDE90001514628460FF0F7FC3146FC
:108EC00028460FF0F3FC204604F086FE204610EE04
:108ED000108A04F081FE40468DED070A45F074F8D3
:108EE000079B029780461846894645F06DF86A4B05
:108EF000002245F0C1F84B464246CDE900015146FB
:108F000058460FF0D3FC314658460FF0CFFC642092
:108F100019F036FB5E4A5F4928460FF0C7FC204631
:108F200004F079FE204610EE107A04F074FE0598E5
:108F300010EE10AA45F048F80022574B45F09CF877
:108F400045F04AFB03B23846059345F03DF8059BD2
:108F5000029380465046894645F036F84E4B504FB6
:108F6000DFF848A1002245F087F842464B46CDE99C
:108F70000001394628460FF099FC314628460FF08B
:108F800095FC204604F047FE204610EE108A04F0BF
:108F900042FE40468DED070A45F016F8059B029308
:108FA000079B80461846894645F00EF83A4B00224A
:108FB00045F062F84B464246CDE900013946584635
:108FC0000FF074FC314658460FF070FC642019F025
:108FD000D7FA2F4A2F4928460FF068FC204604F0A4
:108FE00039FE204610EE108A04F034FE06988DED0E
:108FF000050A44F0E9FF284B002245F03DF845F012
:10900000EBFA07B2404644F0DFFF8046059802972E
:10901000894644F0D9FF204B002245F02DF8424606
:109020004B46CDE90001514628460FF03FFC314642
:1090300028460FF03BFC204604F00CFE204610EEC4
:10904000105A04F007FE284610EE108A44F0BCFFC8
:10905000044640460D46029744F0B6FF0E4B0022F0
:1090600045F00AF82246CDE900012B465146584604
:109070000FF01CFC314658460FF018FC642009B074
:10908000BDE8F04F19F07CBAF4D5002090DE002046
:109090001BF1060048EA060000408F405C330700E1
:1090A0002EF106001FF10600F4DE00203DF106005F
:1090B00007B568480DF10701312204F0D5FD9DF890
:1090C0000730590618D5644A644965480FF0EEFB2D
:1090D0009DF80720634962480FF0E8FB6249604849
:1090E0000FF0E4FB5F499DF8072060480FF0DEFBBE
:1090F0005D495E480FF0DAFB642019F041FA9DF8F3
:1091000007309A0614D5544A544955480FF0CEFBFF
:10911000574953480FF0CAFB534951480FF0C6FB5B
:10912000534952480FF0C2FB4F4950480FF0BEFB65
:10913000642019F025FA9DF80730DB0614D5464A5D
:10914000464947480FF0B2FB4A4945480FF0AEFB8D
:10915000454943480FF0AAFB464944480FF0A6FB97
:10916000414942480FF0A2FB642019F009FA9DF82A
:109170000730180714D5384A384939480FF096FB9C
:109180003D4937480FF092FB374935480FF08EFBC9
:10919000394936480FF08AFB334934480FF086FBD3
:1091A000642019F0EDF99DF80730590714D52A4AC3
:1091B0002A492B480FF07AFB304929480FF076FBFB
:1091C000294927480FF072FB2C4928480FF06EFB05
:1091D000254926480FF06AFB642019F0D1F99DF863
:1091E00007309A0714D51C4A1C491D480FF05EFB36
:1091F00023491B480FF05AFB1B4919480FF056FB37
:109200001F491A480FF052FB174918480FF04EFB40
:10921000642019F0B5F99DF80730DB0714D50E4A24
:109220000E490F480FF042FB16490D480FF03EFB68
:109230000D490B480FF03AFB12490C480FF036FB72
:1092400009490A480FF032FB642019F099F903B07C
:109250005DF804FBF4D500201BF1060048EA060087
:1092600090DE00204CF106005C330700F4DE0020A5
:1092700063F106006AF1060070F1060077F106005E
:109280007DF1060084F1060073B50021044611202B
:109290000FF0A8FB5C480FF04DFA5C4B54B3002272
:1092A0009A800A22DA804FF481721A8140F2011208
:1092B0005A81564804F068FD054608B3544A55499A
:1092C00055480FF0F3FA554953480FF0EFFA544957
:1092D00051480FF0EBFA514952480FF0E7FA504964
:1092E00050480FF0E3FA642019F04AF900242046B0
:1092F00002B070BD02229C80DC801A815C81D8E7BC
:10930000002C38D02A22302140488DF80720012631
:1093100004F054FB082232213C488DF8072004F069
:109320004DFB3246332139488DF8076004F046FB87
:1093300024220DF10701354804F096FC9DF8072022
:10934000324822F00C0242F0080224218DF8072056
:1093500004F034FB602222212C488DF8072004F011
:109360002DFB2A462521294804F028FB27483246B0
:10937000212104F023FB002520220DF107012348C1
:109380008DF8075004F070FC9DF807201F4842F04C
:10939000080220218DF8072004F010FB642019F04A
:1093A000EFF81E220DF1070118488DF8075004F060
:1093B0005BFC9DF80720154842F090021E218DF8B5
:1093C000072004F0FBFA642019F0DAF84CB1FFF73B
:1093D0006FFE1549042211200EF032FCFFF728FD24
:1093E00085E720220DF10701084804F03DFC9DF8B7
:1093F0000720064802F0400220218DF807200124B2
:1094000004F0DCFA73E700BFECDF0020F4D50020A5
:109410001BF1060048EA060090DE00208AF10600F3
:109420005C330700F4DE00202D8E02000248182273
:10943000002104F07DBA00BFF4D50020F8B50FF08C
:10944000F4FA1B4D1B4B1C4C0021C3E900010FF02B
:10945000ECFAD5E90032C61A62EB4207C92E77F161
:10946000000308DB0FF0E1FA00236B60237828602B
:109470000133DBB22370114A114912480FF016FA7A
:10948000227811490F480FF011FA10490D480FF0DA
:109490000DFA22780C490E480FF008FA0B490C48D7
:1094A0000FF004FABDE8F840642019F069B800BF75
:1094B00008D6002010D6002019D60020ABF10600F7
:1094C00048EA060090DE0020AFF106005C3307009A
:1094D000F4DE002008B5022109200FF083FA0649C6
:1094E000032209200EF0ACFB044905480123642245
:1094F000FDF7F8FE012008BD3D940200819A0200AC
:10950000D8D500202DE9F04FAC4D8FB0CDE90C231C
:109510000FF08BFAD5E900BC0024B0EB0B0240F64B
:10952000B83064EB0C030021904271EB0303A246B8
:10953000A146A0462746264665DB0FF076FAD5E918
:109540000023811A63EB430300910193DDE90023BB
:10955000B2F5C87F73F1000360DA0FF066FAD5E95F
:109560000023811A63EB430302910393DDE9023484
:10957000B3F5C87F74F1000375DA0FF056FAD5E938
:109580000023811A63EB430304910593DDE904345E
:10959000B3F5167F74F1000380F288800FF045FA6E
:1095A000D5E90023811A63EB430306910793DDE9B4
:1095B0000634B3F5487F74F1000380F29D800FF00C
:1095C00034FAD5E90023811A63EB43030891099328
:1095D000DDE90834B3F5966F74F1000380F2AF80D3
:1095E0000FF023FAD5E90023811A63EB43030A91B4
:1095F0000B93DDE90A34B3F5AF6F74F1000380F229
:10960000BF80072474E009200FF008FA002894D1E5
:109610006B4B1B78002B90D0022469E0684B1B78C1
:10962000012B9AD109200FF0F9F9012895D14FF0BB
:10963000000BC82C11D009200FF0F0F9012808BF49
:109640000BF1010B4FF0010004F1010408BF5FFAB8
:109650008BFBE4B218F094FFEBE7BBF1C60F7FF68B
:109660007CAF002444E0564B1B78022B85D10920A7
:109670000FF0D4F9012880D10024BAF1C80F10D01E
:1096800009200FF0CBF9012808BF01344FF0010089
:109690000AF1010A08BFE4B25FFA8AFA18F070FF13
:1096A000EBE7C62C7FF669AF012421E0444B1B7821
:1096B000032BDCB27FF472AF4FF0000AB9F1C80F90
:1096C00012D009200FF0AAF9012808BF0AF1010AF7
:1096D0004FF0010009F1010908BF5FFA8AFA5FFA49
:1096E00089F918F04DFFE9E7BAF1C60F7FF656AFDA
:1096F00020460FB0BDE8F08F314B1B78042BDCB255
:109700007FF45DAF4FF00009B8F1C80F12D0092007
:109710000FF084F9012808BF09F101094FF0010099
:1097200008F1010808BF5FFA89F95FFA88F818F0B4
:1097300027FFE9E7B9F1C60F7FF641AFD8E7204B25
:109740001B78052BDCB27FF44BAF4FF00008C82F1D
:1097500011D009200FF062F9012808BF08F10108B3
:109760004FF0010007F1010708BF5FFA88F8FFB268
:1097700018F006FFEBE7B8F1C60F7FF631AFB7E799
:109780000F4B1B78062BDCB27FF43BAF0025C82EB5
:109790000FD009200FF042F9012808BF01354FF022
:1097A000010006F1010608BFEDB2F6B218F0E8FEBE
:1097B000EDE7C62D7FF625AF9AE700BF10D6002053
:1097C00019D6002073B58C4D8C4C2A7A237A9A4294
:1097D00030D003F0FDFA8A4803F0D4F96A68AB7A16
:1097E000884862602A89A372228103F093FA86482E
:1097F00003F090FA03F022FB01F09EFD40F6B83032
:1098000018F0BEFE237A8148012B4FF000014FF083
:10981000320640F0A0800EF016FB00227C48009635
:109820000A2311460EF067FB7A480EF046FB7A4891
:109830000EF046FDAA7AA37A9A4206D02B7A022B22
:109840000CBF0120002002F037FB6A6863689A426F
:1098500007D1AB68A268534023F07F4323F0FF0396
:10986000ABB103F0B5FA674803F054FA664803F069
:1098700051FA03F0E3FA6B6863606B7A6372AB7A58
:10988000A37201F059FD40F6B83018F079FE634834
:109890000EF045FC00286BD061480EF0DBFB614BFD
:1098A0001978884205D000395D4818BF01210EF0B3
:1098B000D3FB5D480EF0E0FB5C4B1978884202D088
:1098C00059480EF0DBFB5A480EF0E8FB594B19786B
:1098D000884202D056480EF0E3FB574D57482E7889
:1098E0000EF0EEFB86420BD0297854480EF0F4FBC4
:1098F00032230122009346480A2311460EF0FBFA58
:1099000003F066FA237A012B6FD0022B6FD013B9C4
:109910004B4803F0FFF94FF47A7362684949B2FB90
:10992000F3F249480BF0B2FC474803F0F3F96268E0
:1099300022B10023454819460EF0F9FC637A002B4A
:1099400057D0424800234EF66022022102B0BDE803
:1099500070400EF0ECBC0EF076FA012200960A235D
:1099600011462B480EF0C7FA2C480EF0DCFB5EE7E0
:10997000374D384829680EF020FA36480EF01BFAA9
:109980002968884202D033480EF017FA32480EF0A8
:1099900023FA324B1978884202D02F480EF01EFA73
:1099A0002F4D30482E780EF028FA864203D02978C1
:1099B0002C480EF024FA2C480EF030FA2B4B197874
:1099C000884202D028480EF02BFA29480EF039FAC6
:1099D000284B1978884202D025480EF043FA4FF6FA
:1099E000FD710A480EF02FFA8AE7234891E72348D1
:1099F0008FE702B070BD00BFA0A10020CCA2002064
:109A0000BFF10600C6F10600D6F10600CEDF002049
:109A1000A9DF0020E4DF002008DF0020CDDF0020E8
:109A2000B5DF00201BD60020B8DF00201DD60020A7
:109A3000C0DF00201ED600201CD60020CADF002078
:109A40005DEC06007EEC0600D3D4002071DF002020
:109A500028D60020D9DF0020DADF00202CD6002015
:109A600023D60020DBDF0020DCDF002024D600200E
:109A7000DEDF00202DD6002024EC06006CEC060072
:109A8000F7B5FFF73FFD062800F2C686DFE810F0C5
:109A90001F06C0030700C001D3006E003200954BC3
:109AA000954A00241C70954B00200021C3E9000159
:109AB000934994480EF0FAFE934992480EF0F6FE50
:109AC000924990480EF0F2FE8F4991480EF0EEFE5A
:109AD0008E498F480EF0EAFE642018F051FD8D4B40
:109AE0001B782BB1204603B0BDE8F04003F0AEB9BF
:109AF0000120F8E77F4B00221A70804B00200021E4
:109B0000C3E90001844B1B78002B00F08586834C51
:109B10002378052B0DD1824B8248997A102222702E
:109B200001915B7A00938049804B09781B7803F0A0
:109B3000B3F9714A724973480EF0B8FE22787C4935
:109B400070480EF0B3FE71496E480EF0AFFE2278F9
:109B500077496F480EF0AAFE6C496D480EF0A6FEDC
:109B6000642003B0BDE8F04018F00ABD614B00224C
:109B70001A70624B00200021C3E90001664B1B787C
:109B8000002B4ED0654C2378042B30D0052B3ED0D3
:109B90008BB968480EF0C3FA0128614B1CD1997A41
:109BA00065480422227001915B7A64490093097828
:109BB000FF2303F071F9504A514952480EF076FEE6
:109BC00022785F494F480EF071FE50494D480EF023
:109BD0006DFE22785A49BCE7997A5A4805222270CC
:109BE00001915B7A584900930978FF23E1E7072345
:109BF000564823700EF064FA494A937A0193537AD7
:109C000000932278C3B2484946480978D1E7444BCB
:109C10000E22997A227001915B7A00934C4B1B784B
:109C2000F1E703F0D5F84B4802F0ACFF03B0BDE814
:109C3000F04018F0BCBC2F4B00221A702F4B0020B4
:109C40000021C3E90001344B1B78002B00F0D580C4
:109C5000324C2378062B23D8DFE813F007001500D9
:109C6000330041008C00BD00C7002D4903220B7A50
:109C7000887A22700190497A00910233DBB236492A
:109C8000364809780AE0264B3548997A0022227036
:109C900001915B7A334900930978FF2303F0FCF8C4
:109CA000154A174917480EF001FE22782E4915482B
:109CB0000EF0FCFD154913480EF0F8FD22782A49F4
:109CC00047E7174A2949537A294883F00103537219
:109CD000927ACDE90032FF2309780222DEE7104BA9
:109CE00002221A729A7A01925B7A00930322042369
:109CF000C5E700BF19D60020ABF1060010D6002042
:109D000048EA060090DE0020E7F106005C33070019
:109D1000F4DE002078A4002018D600201AD60020F7
:109D2000A0A1002098A100209CA100202DD60020F9
:109D3000F1F10600CDDF00206CA2002080A20020FF
:109D400002F2060098A20020B0A20020CADF002084
:109D500024D6002013F2060040A2002030A20020EA
:109D6000B4A20020C8A200201EF2060094A2002087
:109D700084A200200A23824823700EF0A1F9C0B209
:109D80000C280ED8DFE800F0071B1B211B21211B2C
:109D90001B1B1B1B21007B4B00221A707A4B0522D8
:109DA0001A707A4A7A4B917A1B780191527A009212
:109DB0000A332278DBB27749774809786EE7714B2E
:109DC00000221A70704B0722EAE76E4B00221A70CD
:109DD0006D4B0A22E4E76D4B0D22997A22700191B6
:109DE0005B7A00936D4B1B78E5E7684B9A7A01929A
:109DF0005B7A009306220023DDE702F0E9FF684862
:109E000002F0C0FE674803B0BDE8F0400EF058BA5B
:109E1000654B00221A70654B00240025C3E90045FC
:109E2000634B1B78002B00F08381624C2278102A50
:109E30002BD8DFE812F011001D003B004600530054
:109E400084009100DD002A00060119012E01400165
:109E500050015F012A006D014C4B0222997A227059
:109E600001915B7A0093FF235349544809780AE033
:109E7000464B5348997A0022227001915B7A5149EE
:109E800000930978FF2303F007F84F4A4F495048E1
:109E90000EF00CFD22784F494D480EF007FD4E495B
:109EA0004B480EF003FD22784A4952E6374A937A2E
:109EB00083F0010393720193537A00930222FF23EC
:109EC000D2E7324B4549464801221A729A7A0192EA
:109ED0005B7A0093032309781A46D4E709232848BC
:109EE00023700EF0EDF8C0B20C2814D8DFE800F0B3
:109EF00007070707070D1E07242424241E00394BDB
:109F000000221A70384B052204E0364B00221A70EA
:109F1000354B04221A701D4A1D4B917A1B78019112
:109F2000527A00920A33DBB2227811E02D4B0022E4
:109F30001A702D4B0622EDE72A4B0222E1E7134B64
:109F40000C22997A227001915B7A0093274B1B783F
:109F500010491148097896E70C4B5A6842B142F211
:109F60000F718A428ABFA2F51C520022103A5A6031
:109F70009A7A01925B7A00930622FF23E8E700BFFA
:109F8000CADF002022D6002020D60020A0A1002079
:109F90001DD600209CA1002098A1002023D60020DF
:109FA0002FF2060008DF002019D6002010D600206E
:109FB00018D600201AD6002094A2002084A20020E7
:109FC000B4A20020C8A20020ABF1060048EA0600B7
:109FD00090DE00203FF206005C33070040A2002024
:109FE00030A2002021D600201FD600202CD6002031
:109FF0006C4D2B781BB3013BDBB26B4A6B496C4851
:10A000002B700EF053FC2A786A4969480EF04EFC1A
:10A01000694967480EF04AFC2A78664967480EF09D
:10A0200045FC654965480EF041FC642018F0A8FA2B
:10A03000634B9A7A01925B7A00932B7874E70C2336
:10A04000DBE7604A60491378097899420BBF5F4BA0
:10A0500003F1FF331B78DBB21370594A917A0191F7
:10A06000527A0092092273E7594A5A4913780978BB
:10A0700099420BBF584B03F1FF331B78DBB21370CF
:10A080004F4B9A7A01925B7A00934E4B0A221B78CF
:10A090005EE7524A52491368A3F5C333A03B8B4293
:10A0A00098BF504B1360464B9A7A01925B7A0093AB
:10A0B0000B22FF234CE74C490B78062B1CBF03F106
:10A0C000FF33DAB23E4B0A70997A01915B7A0093C2
:10A0D00013460C223CE7454A13784BB1013BDBB2F7
:10A0E0001370374A917A0191527A00920D222FE72C
:10A0F0000923F5E73E4A117809B1481EC0B2107035
:10A100002F4A937A0193537A00930E2203461FE756
:10A11000384A1378052B1ABF03F1FF33DBB216233D
:10A120001370274A917A0191527A009210220FE718
:10A13000314B1B78002B40F06F83304B1B7813B9E9
:10A14000012002F083FE184A184919480EF0AEFBB0
:10A150002B4917480EF0AAFB174915480EF0A6FB2D
:10A16000274916480EF0A2FB134914480EF09EFB37
:10A17000642018F005FA002122480EF0E2F8224B84
:10A18000012200201A70FDF78BF9204B5A68002A33
:10A1900000F0428300231B48194603B0BDE8F0409D
:10A1A0000EF0C5B81CD60020ABF1060048EA060048
:10A1B00090DE002035F206005C330700F4DE00205C
:10A1C000A0A100201DD6002021D600201FD60020EF
:10A1D0001ED6002022D6002020D6002028D600201F
:10A1E0007F47A1198047A1192CD6002023D6002033
:10A1F00024D600202DD60020ECD5002078A4002005
:10A2000050F2060071DF0020C1D40020CCA2002053
:10A21000A94BAA4DAA4C00221A70AA4B002100207B
:10A22000C3E900012978002940F0E480A6480EF037
:10A2300088F80121A4480EF084F8A34802210EF00A
:10A2400080F8A24B1B7813B9012002F0FFFD012317
:10A250009F4A2B70002323709E4B917A506812897D
:10A2600058601A819C4899720DF059FF05469B4A27
:10A270009B499C48002D42D00EF018FB9A49994802
:10A280000EF014FB994997480EF010FB9649984838
:10A290000EF00CFB954996480EF008FB642018F070
:10A2A0006FF994480DF0E8FE934B187093480DF049
:10A2B00007FF934B187093480DF0CCFE924B18702B
:10A2C00092480DF0EBFE924B18700023CDE900335D
:10A2D000227890499048097802F0DEFD7F4A804953
:10A2E00080480EF0E3FA22788C497E480EF0DEFAC0
:10A2F0007E497C480EF0DAFA2278884929E40EF08B
:10A30000D5FA794977480EF0D1FA784975480EF0B8
:10A31000CDFA754976480EF0C9FA744974480EF0C2
:10A32000C5FA642018F02CF929467D487D4D0DF0C2
:10A330008AFD7D480DF03FFD28607C480DF04CFD06
:10A340007B4B18707B480DF058FD7B4B18707B4899
:10A350000DF064FD7A4B18707A480DF072FD7A4B5F
:10A360005E4A18705E495F480EF0A0FA286843F014
:10A3700019FE4FA3D3E9002343F0A8FF06466A481D
:10A380000F460DF018FD43F00DFE49A3D3E900235D
:10A3900043F09CFF32463B46CDE900016B495148F2
:10A3A0000EF084FA51494F480EF080FA286843F0C5
:10A3B000F9FD3FA3D3E9002343F088FF06465A483E
:10A3C0000F460DF0F8FC43F0EDFD39A3D3E900236F
:10A3D00043F07CFF3246CDE900013B465B494448EF
:10A3E0000EF064FA414942480EF060FA642018F019
:10A3F000C7F86AE72378102B3FF670AF01A252F836
:10A4000023F000BF49A402005BA402006DA4020077
:10A4100071A402008BA40200A9A40200B5A6020048
:10A4200061A50200B5A50200D1A50200F5A50200B4
:10A4300019A602003DA602005BA6020079A6020052
:10A44000DDA2020097A602000122224B2270997A17
:10A4500001915B7A0093FF2322E01E4B0022997A40
:10A46000227001915B7A0093FF2332E70622ECE72A
:10A47000184B3749374800221A729A7A01925B7A50
:10A48000009309780223032226E712491E4B887A9B
:10A490001B78082222700190497A00910A33DBB2BE
:10A4A0002D492E48097817E70B22CEE7AFF300803D
:10A4B0000000000084D7974119D6002018D600204C
:10A4C0001AD6002010D6002071DF002078A40020CA
:10A4D000CCA20020A0A10020CDDF0020ABF106001F
:10A4E00048EA060090DE002066F206005C330700B2
:10A4F000F4DE0020B8DF00201DD60020CADF0020D7
:10A500001CD60020B5DF00201BD60020C0DF0020B5
:10A510001ED60020C8A20020B4A2002089F20600A6
:10A52000CEDF002028D60020D9DF0020DADF00208F
:10A530002CD60020DBDF002023D60020DCDF00202B
:10A5400024D60020DEDF00202DD600207BF206007E
:10A5500040A2002030A200209CA1002098A1002051
:10A56000874D884A2B78884988480C2B1ABF0133BD
:10A57000DBB200232B700EF099F92A7884498348C6
:10A580000EF094F9834981480EF090F92A788049B9
:10A5900081480EF08BF97F497F480EF087F96420DF
:10A5A00017F0EEFF7D4B9A7A01925B7A00932B783D
:10A5B000227875E77A4A1378B3FA83F35B0913704C
:10A5C000764A917A0191527A00920A33082267E71B
:10A5D000744A75491378097899420BBF734B01335C
:10A5E0001B78DBB213706D4A917A0191527A009216
:10A5F000092255E76E4A6F491378097899420BBFD3
:10A600006D4B01331B78DBB21370644A917A019170
:10A61000527A00920A2243E7684A6949136803F5AF
:10A62000C333A0338B4294BF136011605B4B9A7AA3
:10A6300001925B7A00930B22FF2331E7614A137882
:10A640000C2B1ABF0133DBB206231370534A917AE5
:10A650000191527A00920C2222E75B4A1378092B6F
:10A660001ABF0133DBB2002313704C4A917A019177
:10A67000527A00920D2213E7544A1378032B1ABF23
:10A680000133DBB200231370444A917A0191527A6C
:10A6900000920E2204E74E4A1378162B1ABF01339C
:10A6A000DBB2052313703D4A917A0191527A0092F0
:10A6B0001022F5E6394A536803F51C5310335360F2
:10A6C000937A0193537A009306220023E8E6414BE4
:10A6D00000221A70404B00200021C3E900013F4BCB
:10A6E0001A78002A00F098803D4C2278102A0ED863
:10A6F000DFE802F0091F1F1F1F1F862D2D2D2D398A
:10A700003939390D390000221A70FFF75BF81D4AFC
:10A710001D491E480EF0CAF8227832491B480EF037
:10A72000C5F81C4919480EF0C1F822782D49FFF7E9
:10A7300010BA1A4B2C48997A0022227001915B7A48
:10A740002A4900930978FF2302F0A6FBDFE7134BA9
:10A750002748997A0422227001915B7A2549009357
:10A760000978FF23F0E70D4B2348997A05222270E0
:10A7700001915B7A214900930978FF23E4E700BF48
:10A780001CD60020ABF1060048EA060090DE00204F
:10A7900035F206005C330700F4DE0020A0A10020A3
:10A7A0001BD600201DD600201FD6002021D6002059
:10A7B0001ED6002020D6002022D6002028D6002039
:10A7C000007038392CD6002023D6002024D6002053
:10A7D0002DD6002019D6002010D6002018D6002033
:10A7E0001AD600209AF20600B4A20020C8A20020C7
:10A7F0006CA2002080A2002098A20020B0A200201D
:10A80000064B0748997A0222227001915B7A05492A
:10A8100000930978FF2397E703B0F0BDA0A10020C3
:10A8200084A2002094A2002070B598B014460A4972
:10A830000EA80DF0D5FE0023CDE91433CDE9163373
:10A84000636E012B0CD1054920680AF03FFD48B129
:10A85000022400F0EDBC00BF5E330700E2520700A7
:10A86000002BF5D1B649B748B74CB84DB84E0EF0ED
:10A870001DF8B849B3480EF019F8B149B6480EF0C2
:10A8800015F8B449B4480EF011F8642017F078FEBA
:10A89000237AB24955F82320AA480EF007F8AD49AB
:10A8A000A8480EF003F8237AAC4955F82320AA48AB
:10A8B0000DF0FCFFA749A8480DF0F8FF642017F041
:10A8C0005FFEA74911A80DF0E5FC11A90EA80DF037
:10A8D0009AFE11A80DF03EFE0EA80DF0D7FE0E9ABE
:10A8E000A04998480DF0E2FF9A4996480DF0DEFF26
:10A8F0000E9A9C4998480DF0D9FF964996480DF05C
:10A90000D5FF642017F03CFE974911A80DF0A2FC7A
:10A91000119A96498B480DF0C9FF11A80DF01AFE47
:10A920008C4988480DF0C2FF8F4911A80DF092FCA8
:10A93000119A8E4988480DF0B9FF11A80DF00AFE52
:10A94000844985480DF0B2FF642017F019FE4FF4DA
:10A950007A7562688649B2FBF5F27A480DF0A6FF77
:10A960007C4978480DF0A2FF62688149B2FBF5F29C
:10A9700079480DF09BFF774977480DF097FF6420E9
:10A9800017F0FEFD7B480DF0CAFB7B4956F82020EE
:10A9900005466C480DF08AFF6E496A480DF086FF47
:10A9A00056F8252074496C480DF080FF69496A48C3
:10A9B0000DF07CFF642017F0E3FD012D40F04E8385
:10A9C0006E486F4E6F4D0DF043FB6F49002814BF6A
:10A9D00032462A465B480DF069FF5E4959480DF042
:10A9E00065FF66480DF034FB6749002814BF324606
:10A9F0002A465948654E0DF059FF564956480DF004
:10AA000055FF642017F0BCFD61480DF059FB61490A
:10AA1000054602464B480DF049FF4E4949480DF0A6
:10AA200045FF2A465B494C480DF040FF49494A48DA
:10AA30000DF03CFF642017F0A3FD56F82520564981
:10AA400040480DF033FF43493E480DF02FFF56F8C4
:10AA50002520514940480DF029FF3E493E480DF060
:10AA600025FF642017F08CFD4C480DF0EAFA002811
:10AA700000F0BE814A4933480DF018FF354931488E
:10AA80000DF014FF464934480DF010FF31493248AB
:10AA90000DF00CFF642017F073FD082214A9414843
:10AAA0000DF0AEFA9DF8573005939DF8563004939B
:10AAB0009DF8553003939DF8543002939DF8533020
:10AAC00001939DF852309DF85020374900931D485E
:10AAD0009DF851300DF0EAFE1E491A480DF0E6FED1
:10AAE0009DF8573005939DF8563004939DF85530E6
:10AAF00003939DF8543002939DF8533001939DF8D1
:10AB000052309DF850202849009313489DF8513049
:10AB10000DF0CCFE0F4910480DF0C8FE642017F070
:10AB20002FFD082214A921480DF046FA9DF8573050
:10AB300005939DF8563004939DF8553038E000BFDA
:10AB400015F3060090DE0020CCA200209CA300207C
:10AB500090A300205C330700F4DE002024F30600FD
:10AB600048DF002032F306000CDF0020ED20070054
:10AB70003DF30600CDDF00204DF30600B4DF0020DA
:10AB80004F30070007F306005DF306005CA30020CA
:10AB9000CADF002068F3060073F30600B3DF00206D
:10ABA0007EF30600AEDF002088F30600AADF002057
:10ABB00003939DF8543002939DF8533001939DF810
:10ABC00052309DF850207D4900937D489DF85130CA
:10ABD0000DF06CFE7B497A480DF068FE9DF8573009
:10ABE00005939DF8563004939DF8553003939DF8D6
:10ABF000543002939DF8533001939DF852309DF8E4
:10AC000050206E49009370489DF851300DF04EFE73
:10AC10006C496D480DF04AFE642017F0B1FC10221B
:10AC200014A96A480DF0D1F99DF85F300D939DF895
:10AC30005E300C939DF85D300B939DF85C300A9369
:10AC40009DF85B3009939DF85A3008939DF8593070
:10AC500007939DF8583006939DF8573005939DF85B
:10AC6000563004939DF8553003939DF85430029369
:10AC70009DF8533001939DF852309DF8502054496F
:10AC800000934F489DF851300DF010FE4D494C484F
:10AC90000DF00CFE9DF85F300D939DF85E300C9327
:10ACA0009DF85D300B939DF85C300A939DF85B3006
:10ACB00009939DF85A3008939DF8593007939DF8F1
:10ACC000583006939DF8573005939DF856300493FD
:10ACD0009DF8553003939DF8543002939DF85330FE
:10ACE00001939DF8523000939DF850209DF851300B
:10ACF000374935480DF0DAFD32493348354E364D87
:10AD00000DF0D4FD642017F03BFC34492C480DF0C5
:10AD1000CDFD2C492A480DF0C9FD30492A480DF0D7
:10AD2000C5FD284928480DF0C1FD642017F028FC16
:10AD3000227A2B4922480DF0B9FD224920480DF016
:10AD4000B5FD227A264920480DF0B0FD1D491E4868
:10AD50000DF0ACFD642017F013FC627A214918480D
:10AD6000002A14BF32462A460DF0A0FD15491448AA
:10AD70000DF09CFD627A1B491348002A14BF32462D
:10AD80002A460DF093FD0F490F48174E0DF08EFD2A
:10AD9000642017F0F5FB154817F00AFF0025B4F8FA
:10ADA0008C20EBB2934205F1010580F23D822344F1
:10ADB0003046D97A17F0FCFEF1E700BFB0F3060089
:10ADC00090DE00205C330700F4DE0020ABDF0020C3
:10ADD000D8F3060012F30600E3F1060039F5060089
:10ADE00049F5060057F506004774070068F50600A8
:10ADF000904991480DF05AFD90498F480DF056FD4D
:10AE00008C498F480DF052FD8C498D480DF04EFD58
:10AE1000642017F0B5FB14A910228A480DF0DEF863
:10AE20009DF85F300D939DF85E300C939DF85D307A
:10AE30000B939DF85C300A939DF85B3009939DF865
:10AE40005A3008939DF8593007939DF8583006936F
:10AE50009DF8573005939DF8563004939DF8553072
:10AE600003939DF8543002939DF8533001939DF85D
:10AE700052309DF85020009373499DF851306E4830
:10AE80000DF014FD6D496C480DF010FD9DF85F301C
:10AE90000D939DF85E300C939DF85D300B939DF8FB
:10AEA0005C300A939DF85B3009939DF85A30089303
:10AEB0009DF8593007939DF8583006939DF8573008
:10AEC00005939DF8563004939DF8553003939DF8F3
:10AED000543002939DF8533001939DF852309DF801
:10AEE0005020009358499DF8513055480DF0DEFC34
:10AEF000524953480DF0DAFC642017F041FB14A9C5
:10AF0000102252480DF085F89DF85F300D939DF8A2
:10AF10005E300C939DF85D300B939DF85C300A9386
:10AF20009DF85B3009939DF85A3008939DF859308D
:10AF300007939DF8583006939DF8573005939DF878
:10AF4000563004939DF8553003939DF85430029386
:10AF50009DF8533001939DF852309DF85020009396
:10AF60003B499DF8513034480DF0A0FC334932483C
:10AF70000DF09CFC9DF85F300D939DF85E300C93B6
:10AF80009DF85D300B939DF85C300A939DF85B3023
:10AF900009939DF85A3008939DF8593007939DF80E
:10AFA000583006939DF8573005939DF8563004931A
:10AFB0009DF8553003939DF8543002939DF853301B
:10AFC00001939DF852309DF85020009320499DF840
:10AFD00051301B480DF06AFC184919480DF066FC09
:10AFE000642017F0CDFA14A904221A480CF0FFFFD0
:10AFF0009DF8533001939DF852309DF850200093F6
:10B0000015499DF851300C480DF050FC0B490A4889
:10B010000DF04CFC9DF8533001939DF85230009395
:10B020009DF850209DF851300B4905480DF03EFC2D
:10B0300062E600BF20F4060090DE00205C330700CB
:10B04000F4DE0020ACDF002029F40600B0DF002091
:10B0500072F40600ADDF0020BBF406007748002D37
:10B0600040F09B800CF0A7FE7549024675480DF034
:10B070001DFC754973480DF019FC70480CF09BFEDF
:10B080006F49024671480DF011FC6F496F480DF091
:10B090000DFC642017F074FA6D480CF09DFE6D49AC
:10B0A000024668480DF002FC674966480DF0FEFB59
:10B0B00067480CF091FE6749024664480DF0F6FBC4
:10B0C000614962480DF0F2FB642017F059FA6248BA
:10B0D0000CF093FE614902465A480DF0E7FB5A49CD
:10B0E00058480DF0E3FB5C480CF087FE5B490246D4
:10B0F00056480DF0DBFB544954480DF0D7FB642053
:10B1000017F03EFA56480CF089FE564902464D4863
:10B110000DF0CCFB4C494B480DF0C8FB50480CF0EF
:10B120007DFE5049024649480DF0C0FB464947485C
:10B130000DF0BCFB642017F023FA4B480CF07FFEA7
:10B140004A4902463F480DF0B1FB3F493D480DF0EA
:10B15000ADFB45480CF073FE444902463B480DF0F8
:10B16000A5FB394939480DF0A1FB642017F008FA16
:10B170003F480CF066FE3F49024632480DF096FB10
:10B18000314930480DF092FB39480CF05AFE3949EC
:10B1900002462E480DF08AFBAEE50CF00CFE284965
:10B1A000024628480DF082FB274926480DF07EFB19
:10B1B00022480CF000FE2249024624480DF076FB9E
:10B1C000214922480DF072FB642017F0D9F92A4872
:10B1D0000CF06BFE294902461A480DF067FB1A492C
:10B1E00018480DF063FB24480CF05FFE234902462B
:10B1F00016480DF05BFB144914480DF057FB642012
:10B2000017F0BEF91E480CF052FE1E4902460D48CA
:10B210000DF04CFB0C490B480DF048FB18480CF0A6
:10B2200046FE18490246B4E7074817F0C1FC00245F
:10B230000EA80DF08FF9204618B070BDD9DF0020A0
:10B24000D4F4060090DE00205C330700F4DE00201A
:10B25000DADF0020E3F40600DBDF0020EBF4060079
:10B26000DCDF0020F3F40600DDDF0020FBF4060045
:10B27000DEDF002010F50600E2DF00201EF50600EC
:10B28000E3DF00202BF5060007B503230193054BF0
:10B290000093054B054A064819460DF01CF803B00B
:10B2A0005DF804FBA9B5020079F5060081F50600FA
:10B2B0006EDF002007B503230193054B0093054B78
:10B2C000054A064819460DF006F803B05DF804FB80
:10B2D00059B70200D4F50600D9F506006EDF00204C
:10B2E00007B503230193054B0093054B054A064818
:10B2F00019460CF0F0FF03B05DF804FB8DB90200B5
:10B3000024F6060029F606006EDF002007B50223AA
:10B310000193054B0093054B054A064819460CF06E
:10B32000DAFF03B05DF804FB29A8020050F606001E
:10B3300057F606006EDF002030B5E7B08849894D2A
:10B34000902201A809F034FA8749B1F88C404A6884
:10B3500002920A898B7AADF80C200B3122460DF14E
:10B360000F008DF80E3009F023FA804A8049814899
:10B37000ADF890400DF09AFA9DF804207E497D4882
:10B380007E4C0DF093FA7E497A480DF08FFA9DF8C5
:10B39000042079497B480DF089FA794979480DF004
:10B3A00085FA642017F0ECF8704A714971480DF085
:10B3B0007DFA029A74496F480DF078FA70496D4829
:10B3C0000DF074FA029A70496E480DF06FFA6C49EC
:10B3D0006C480DF06BFA642017F0D2F8634A6449A8
:10B3E00064480DF063FA9DF80C20684961480DF03F
:10B3F0005DFA63495F480DF059FA9DF80C206349E6
:10B4000060480DF053FA5E495E480DF04FFA642033
:10B4100017F0B6F8554A564956480DF047FA9DF8C8
:10B420000D205B495348002A14BF2A4622460DF0DE
:10B430003DFA53494F480DF039FA9DF80D20544913
:10B440005048002A14BF2A4622460DF02FFA4C49D4
:10B450004C480DF02BFA642017F092F8434A444907
:10B4600044480DF023FA9DF80E204A494148002A2D
:10B4700014BF2A4622460DF019FA41493D480DF005
:10B4800015FA9DF80E2043493E48002A14BF2A466B
:10B4900022460DF00BFA3A493A483F4D0DF006FAB4
:10B4A0000024642017F06CF8FE22214626A825947B
:10B4B00009F08CF9BDF89030E0B2984204F1010433
:10B4C00009DA01AB03442946DA7A25AB03EB4000E5
:10B4D00009F0DCFEEEE7254A254926480DF0E6F99D
:10B4E00025AA2E4923480DF0E1F9254921480DF000
:10B4F000DDF925AA294923480DF0D8F9204921482A
:10B500000DF0D4F9642017F03BF8184A184919488F
:10B510000DF0CCF9BDF89020214916480DF0C6F980
:10B52000174914480DF0C2F9BDF890201C49154880
:10B530000DF0BCF9124913480DF0B8F9642017F06A
:10B540001FF81848902301AA00210CF0DCFE28B94E
:10B5500001469023134801AA0CF0D5FE67B030BD18
:10B56000BCF9060012F30600CCA2002072F6060019
:10B5700048EA060090DE002079F606006EF6060026
:10B580005C330700F4DE00208CF60600AAF6060005
:10B59000C0F60600D9F6060047740700F3F6060069
:10B5A0000CF706006FDF0020F8B5536E012B0E4636
:10B5B000154664D15B49106809F088FE0446F8B965
:10B5C000594F5A497B685A4832464FF47A75B3FB53
:10B5D000F5F30DF06BF9574955480DF067F97B68A5
:10B5E0005249B3FBF5F3324653480DF05FF9514928
:10B5F00051480DF05BF9642016F0C2FF2046F8BDFB
:10B600004E4A4F494A480DF051F92A684D49484879
:10B610000DF04CF9474946480DF048F92A68494968
:10B6200045480DF043F9434943480DF03FF9642084
:10B6300016F0A6FF2D68284609F05AFE0024844221
:10B6400021D02B5D303B092B1BD93C4A3C49384863
:10B650000DF02CF922463C4935480DF027F93549C3
:10B6600033480DF023F93849334822460DF01EF9CE
:10B67000304931480DF01AF9642016F081FF022498
:10B68000BCE70134DBE70A220021284609F006FF67
:10B690002A4A2B49244D044625480DF007F9224635
:10B6A0002A4923480DF002F9224921480DF0FEF8FD
:10B6B0002246264920480DF0F9F81E491E480DF093
:10B6C000F5F8642016F05CFF4FF47A701B4A1C49B1
:10B6D000444317486C600DF0E9F86A681C49144847
:10B6E0000DF0E4F8134912480DF0E0F86A681849C3
:10B6F00011480DF0DBF80F490F480DF0D7F8642022
:10B7000016F03EFF134800210CF01BFE6A6822B1C0
:10B710000023104819460CF00AFEFFF70DFE002426
:10B720006CE700BFE2520700CCA2002029F7060018
:10B7300090DE00205C330700F4DE002072F6060085
:10B7400048EA060030F7060045F7060054F7060001
:10B750006BF7060071DF0020536E012B70B50E46AB
:10B76000154601D002241DE07949106809F0AEFDAC
:10B770000446C8B9774D78492B7A784832460DF09F
:10B7800095F8774975480DF091F82B7A724975480C
:10B7900032460DF08BF8724972480DF087F864203C
:10B7A00016F0EEFE204670BD6F4A70496B480DF0F2
:10B7B0007DF82A686E4969480DF078F8684967484D
:10B7C0000DF074F82A686A4966480DF06FF864490C
:10B7D00064480DF06BF8642016F0D2FE2D68284600
:10B7E00009F086FD0024844220D02B5D303B092BDC
:10B7F0001AD95D4A5D4959480DF058F822465D490D
:10B8000056480DF053F8564954480DF04FF822466B
:10B81000584954480DF04AF8514952480DF046F83D
:10B82000642016F0ADFE9DE70134DCE70A2200211A
:10B83000284609F033FE474E4B4A4C49347A0546B8
:10B8400046480DF033F82A464B4944480DF02EF88F
:10B85000434942480DF02AF82A46474941480DF02D
:10B8600025F83F493F480DF021F8642016F088FE86
:10B87000022D3FF677AFA54201D1002492E71CB913
:10B88000012D04D001241BE0012CFBD1C5B9364A9F
:10B89000364932480DF00AF8384930480DF006F8BC
:10B8A0002F492E480DF002F834492E480CF0FEFFC7
:10B8B0002B492C480CF0FAFF642016F061FE00249E
:10B8C000294A2A49254835720CF0F0FF327A2C4972
:10B8D00022480CF0EBFF224920480CF0E7FF327AB7
:10B8E000274920480CF0E2FF1D491E480CF0DEFFFE
:10B8F000642016F045FEFFF71FFD337A012B21D09F
:10B90000022B22D00BB9FCF7BFFE002CB5D01D498D
:10B9100012480CF0CBFF124910480CF0C7FF194930
:10B9200010480CF0C3FF0E490E480CF0BFFF642016
:10B9300016F026FE41F2883016F022FE12480CF076
:10B94000BFFC9AE7FCF714FFDFE7FCF777FFDCE7C3
:10B95000E2520700CCA200207CF7060090DE002017
:10B960005C330700F4DE002072F6060048EA0600A9
:10B9700030F7060045F7060082F7060095F7060047
:10B98000AFF70600C1F7060008DF0020536E012B59
:10B990002DE9F0410E46154678D1D2F800803F4996
:10B9A0003F4F404609F092FC044688BBB7F88C3004
:10B9B000BBB932463B493C480CF078FF3B493A481A
:10B9C0000CF074FF37493A4832460CF06FFF3749A4
:10B9D00037480CF06BFF642016F0D2FD2046BDE81E
:10B9E000F08131463348344E17F0E2F82546B7F877
:10B9F0008C20EBB2934205F1010505DA3B44304659
:10BA0000D97A17F0D5F8F2E7284817F0D1F8E5E72A
:10BA1000404609F06DFC294A2949064622480CF0A7
:10BA200045FF2A68274920480CF040FF1F491E485F
:10BA30000CF03CFF2A6823491D480CF037FF1B49D6
:10BA40001B480CF033FF642016F09AFD286807F1BC
:10BA50000B02314611F0C6FB0446C8B1174A18491B
:10BA600011480CF023FF18490F480CF01FFF0F4935
:10BA70000D480CF01BFF14490D480CF017FF0B4943
:10BA80000B480CF013FF642016F07AFD0224A5E7A2
:10BA90007608A7F88C60FFF74FFC9FE7E25207009B
:10BAA000CCA20020DEF7060090DE00205C33070009
:10BAB000F4DE0020EAF706004774070072F606007D
:10BAC00048EA060030F70600EEF70600F0B5E7B0EA
:10BAD0004449902201A808F06BFE01AA00214248C7
:10BAE00090230CF006FC0546404A41494148ADB957
:10BAF0000CF0DCFE40493F480CF0D8FE3F493D4881
:10BB00000CF0D4FE3C493E480CF0D0FE3B493C488A
:10BB10000CF0CCFE642016F033FD5FE00CF0C6FEA6
:10BB20009DF8042037493348374C0CF0BFFE3349A9
:10BB300030480CF0BBFE9DF80420324930480CF030
:10BB4000B5FE2E492E480CF0B1FE642016F018FD0B
:10BB5000264A274927480CF0A9FE029A2B49254876
:10BB60000CF0A4FE254923480CF0A0FE029A2749B8
:10BB700023480CF09BFE214921480CF097FE6420DD
:10BB800016F0FEFC9DF80430AA2B43D0174A184942
:10BB900018480CF08BFE029A1D4916480CF086FEE0
:10BBA000164914480CF082FE029A194914480CF008
:10BBB0007DFE124912480CF079FE642016F0E0FC7C
:10BBC00000254FF08073C4E9015340F20233A38192
:10BBD0000423A373A4F88C30FFF7AEFB284667B0AC
:10BBE000F0BD00BFBCF906006FDF002072F6060052
:10BBF00048EA060090DE002007F806005C330700E4
:10BC0000F4DE00202FF80600CCA200203EF806004B
:10BC100056F80600029B63609DF80C30022B40F240
:10BC2000DD808B4A8B498C480CF040FE9DF80C203F
:10BC30008A4989480CF03AFE894987480CF036FE5B
:10BC40009DF80C20854987480CF030FE84498548D2
:10BC50000CF02CFE642016F093FC00232372FFF7F7
:10BC60006BFBBDF890209DF80D306372802A9DF823
:10BC70000E30A37240F2B480754A764976480CF0D3
:10BC800015FEBDF89020784973480CF00FFE7449FA
:10BC900071480CF00BFEBDF89020734971480CF010
:10BCA00005FE6F496F480CF001FE642016F068FC39
:10BCB0000023E372A4F88C30654A664966486B4FEE
:10BCC0006B4E0CF0F3FD62686A4963480CF0EEFDC0
:10BCD000634961480CF0EAFD6268664961480CF00E
:10BCE000E5FD5F495F480CF0E1FD642016F048FC7B
:10BCF000574A584958480CF0D9FD227A5E495648AF
:10BD00000CF0D4FD564954480CF0D0FD227A5A4923
:10BD100054480CF0CBFD524952480CF0C7FD64204A
:10BD200016F02EFC4A4A4B494B480CF0BFFD627A94
:10BD300052494948002A14BF3A4632460CF0B6FD33
:10BD4000474945480CF0B2FD627A4C494548002A03
:10BD500014BF3A4632460CF0A9FD414941480CF067
:10BD6000A5FD642016F00CFC394A3A493A480CF01B
:10BD70009DFD227A42493848002A14BF3A4632468D
:10BD80000CF094FD364934480CF090FD227A3C4981
:10BD90003448002A14BF3A4632460CF087FD304939
:10BDA0003048384F0CF082FD0026642016F0E8FB86
:10BDB000FE22314626A8259608F008FDB4F88C30FE
:10BDC000F0B2984206F1010612DA23183946DA7AFF
:10BDD00025AB03EB400009F059FAEFE7237240E787
:10BDE0000DF10F012848A4F88C2008F0E1FC63E76E
:10BDF000174A184918480CF059FD25AA2349164836
:10BE00000CF054FD164914480CF050FD25AA1F49AA
:10BE100014480CF04BFD124912480CF047FD642009
:10BE200016F0AEFB0A4A0B490B480CF03FFDB4F884
:10BE30008C20174908480CF039FD094906480CF0D8
:10BE400035FDB4F88C20124906480CF02FFD5DE654
:10BE500072F6060048EA060090DE00208BF8060025
:10BE60005C330700F4DE0020A6F8060012F306009B
:10BE70006EF60600C2F80600DAF80600EDF80600D5
:10BE800003F9060047740700D7A200201AF906003C
:10BE90002BF9060010B5074B53F82020002332F889
:10BEA00013408C42D8B203D80133102BF7D1184677
:10BEB00010BD00BF28A400202DE9F34101219F4EB1
:10BEC000074622200CF0A5FD4FF4FA7016F058FB3F
:10BED0003578002D40F0AD8099499A48009540F2A0
:10BEE0004C43422207F00CF80446C0B9964A9749E1
:10BEF00097480CF0DBFC974995480CF0D7FC964925
:10BF000093480CF0D3FC934994480CF0CFFC924931
:10BF100092480CF0CBFC642016F032FB74E08A4AA5
:10BF20008A498B484FF0020886F800800CF0BEFC6E
:10BF30008B4987488B4E0CF0B9FC874984480CF03C
:10BF4000B5FC874985480CF0B1FC834983480CF067
:10BF5000ADFC642016F014FB7A4840F24C420121FB
:10BF600006F0E8FD002F59D040F24C432A4601214B
:10BF7000744806F057FE40F24C4342460121714896
:10BF800006F050FE40F24C43062201216D4806F0B7
:10BF900049FE0122114640F24C436A4806F042FE37
:10BFA00040F24C4303220121664806F03BFE40F27A
:10BFB0004C4304220121634806F034FE40F24C4316
:10BFC00005226048012106F02DFEB37A40F24C4272
:10BFD000F3B105215B4806F0F4FF5A4840F24C43A8
:10BFE0002A46012106F0F4FE564840F24C4106F084
:10BFF000A7FD337A022B03D1B37A002B40F09B804C
:10C00000002122200CF005FD204602B0BDE8F081A1
:10C010004FF4FA714B4807F015F8E5E740F24C424F
:10C020004FF0FF31474806F0ABFDFA2016F0A8FAB2
:10C03000DFE70025424943480095422240F24C4345
:10C0400006F05EFF0446404A404941485CB90CF0A6
:10C050002DFC45493E480CF029FC3F493C480CF07A
:10C0600025FC414950E70CF021FC404938480CF0D0
:10C070001DFC394936480CF019FC3C4937480CF096
:10C0800015FC354935480CF011FC642016F078FA9F
:10C0900040F24C4201212B4806F04CFD40F24C434B
:10C0A0002A460121274806F0BDFD40F24C430222FA
:10C0B0000121244806F0B6FD40F24C43062201213E
:10C0C000204806F0AFFD0122114640F24C431D48C6
:10C0D00006F0A8FD40F24C4303220121194806F066
:10C0E000A1FD40F24C4304220121164806F09AFDBE
:10C0F00040F24C4305221348012106F093FD194BF1
:10C100009B7A40F24C4283B105210E4806F059FF5C
:10C110000C4840F24C432A46012106F059FE40F2F9
:10C120004C41084806F00CFD6EE74FF4FA710548E3
:10C1300006F088FFF3E71C4666E700BF3CD6002008
:10C14000ECDF00206CD6002057EA060048EA060023
:10C1500090DE00204CFA06005C330700F4DE00207D
:10C1600068FA0600CCA200207BFA060090FA0600CE
:10C170002DE9F04FA84EA94DDFF8FCA2A84FA94C1D
:10C18000DFF8F8B28BB0002200230021C6E90023BB
:10C19000C5E9002303A800231C2223608AF80010AD
:10C1A00039608BF80010029108F010FB9E4902A83C
:10C1B00009F096F89D4B9E489B7A40F24C41002B2B
:10C1C00000F05E8107F007F8C117C6E9000140F2F0
:10C1D0004C41974806F0E4FFC117C5E9000140F261
:10C1E0004C41934807F012F840F24C4138609048B7
:10C1F00006F067FF07EE900AF8EE677A40F24C41CE
:10C200008B48C4ED007A06F0B0FF40F24C418BF849
:10C210000000874806F06DFF012840F0E88085495E
:10C2200002A809F05DF8844A844985480CF03EFB79
:10C230009BF800208349824802AB0CF037FB82490F
:10C240007F480CF033FB02AB9BF800207D497F4810
:10C250000CF02CFB7C497D480CF028FB642016F088
:10C260008FF9754A754976480CF020FBD6E9000134
:10C2700041F0D4FE66A3D3E9002342F027F88046BC
:10C280008946D5E9000141F0C9FE61A3D3E9002345
:10C2900042F01CF842464B46CDE900016C49684823
:10C2A0000CF004FB684966480CF000FBD6E900017D
:10C2B00041F0B4FE56A3D3E9002342F007F88046CC
:10C2C0008946D5E9000141F0A9FE51A3D3E9002335
:10C2D00041F0FCFF4B464246CDE900015C495B481A
:10C2E0000CF0E4FA584959480CF0E0FA642016F0D2
:10C2F00047F9514A514952480CF0D8FA386841F090
:10C3000051FE544B002241F0E1FF02460B464C48DF
:10C3100051490CF0CBFA4C4949480CF0C7FA38683F
:10C3200041F040FE4B4B002241F0D0FF0B4602464D
:10C33000494946480CF0BAFA434944480CF0B6FA69
:10C34000642016F01DF93C4A3C493D480CF0AEFA19
:10C35000206841F039FE414B002241F0B7FF024610
:10C360000B4637483E490CF0A1FA374934480CF0E7
:10C370009DFA206841F028FE384B002241F0A6FFCC
:10C3800002460B46314836490CF090FA2E492F48A8
:10C390000CF08CFA642016F0F3F894ED007ADFEDDF
:10C3A000317AB4EEE77AF1EE10FA06D59BF8003058
:10C3B000052B02D901238AF800309AF8003003F0E7
:10C3C000FF08002B00F00081D5E900E31A467368EE
:10C3D000D6F800C01A434CEA0E00114650EA010399
:10C3E00040F0B6804FF000088AF80080E8E00228AC
:10C3F00001D11D4914E7032801D11C4910E7042885
:10C4000001D11B490CE705280CBF1A49064907E76B
:10C4100000000000D012634158D6002060D60020F2
:10C4200034D6002030D60020A0FA0600CCA200208E
:10C430006CD60020A7FA060057EA060048EA060074
:10C4400090DE0020E0FA06005C330700F4DE0020F6
:10C45000F0FA060000408F4004FB0600000059403F
:10C460000EFB060000009643B6FA0600C2FA06006C
:10C47000CEFA0600D7FA060051D60020F0D70020E9
:10C4800006F054FE002898D0012124200CF0C1FAB7
:10C49000574840F24C4106F02CFE8046002840D11F
:10C4A000544902A808F01CFF514840F24C4106F0E4
:10C4B0005CFE514B8BF800001A78904245D14F4AF0
:10C4C000137801331370B8F1020F7FF676AF4B4B40
:10C4D0001B78012B7FF671AF012340F24C41444899
:10C4E0008AF8003006F077FEC117C6E9000140F275
:10C4F0004C413F4806F054FEC117C5E9000140F227
:10C500004C413B4806F082FE40F24C4138603848CE
:10C5100006F0D7FD07EE900AF8EE677AC4ED007AD0
:10C520004BE7012801D13649BBE7022801D1354943
:10C53000B7E7032801D13449B3E7042801D13349CF
:10C54000AFE70528B0D13249ABE788BF1870BAE72A
:10C55000DFF8D8A094ED000A9AF900103B6800912A
:10C56000724661464FF47A792A4893FBF9F31BB27D
:10C5700001F0EEF8D6E9000141F050FD1AA3D3E92D
:10C58000002341F0A3FE42F06FF8234B1860D5E979
:10C59000000141F043FD14A3D3E9002341F096FECE
:10C5A00042F062F81D4B226818601D4B1A601D4A4C
:10C5B0003B6893FBF9F313601B4B9AF800201A7049
:10C5C00040460BB0BDE8F08F134A00231360134AB6
:10C5D0001360134B4FF07E521A60124BC3F8008069
:10C5E000114B83F80080FFE600000000D012634189
:10C5F0006CD60020A0FA060068D6002069D600207C
:10C600001AFB060024FB06002BFB0600CEFA0600F0
:10C61000D7FA0600C4D4002048D600204CD600200B
:10C6200040D6002044D6002050D60020F0D700206D
:10C630002DE9F041012186B023200CF0EAF9FFF743
:10C6400097FD984F984E0446002800F0B880974B0D
:10C65000997A11B922200CF0DCF9954B0022642064
:10C660001A7015F08DFF934A934994480CF01EF907
:10C67000934992480CF01AF9924990480CF016F937
:10C680008F4991480CF012F98E498F480CF00EF941
:10C69000642015F075FF8D4803210BF052FE3B78A6
:10C6A000002B36D08A4B1B78002B32D100F090FB48
:10C6B000884800F02FFB884B1868884B1D68884B12
:10C6C000D3F8008041F080FC02460B462846CDE9B5
:10C6D0000423CDF8088041F077FCDDE90423CDE99F
:10C6E00000018049804808F0D1FD7F4800F012FB2E
:10C6F0007E4B18687E4B1D7841F066FCEDB2024619
:10C700000B4679487B49009508F0C0FD764800F05B
:10C7100001FB794801F0FCF80490774801F0FAF841
:10C7200001250723CDE9005302462B46049973489F
:10C730000BF0FCFB724B00283ED11870714A5E4929
:10C740005E480CF0B3F870495C480CF0AFF85D49F6
:10C750005A480CF0ABF86C495B480CF0A7F8594903
:10C7600059480CF0A3F8642015F00AFF3B78002B21
:10C7700000F08D80002C40F08A80554B1B78002BF8
:10C7800040F0858000F024FB574B1C70474B9B7A90
:10C79000002B71D05D4800F0BDFA5D4B1A78002A7D
:10C7A0006CD13488504B2A20114694426ADD1870AF
:10C7B000013203F8011FF8E71D700446D6E7554B18
:10C7C00032881B889A42D1D3642015F0D9FE4C4D93
:10C7D000374B384A384939481C702C700CF066F8D1
:10C7E0004D4936480CF062F8364934480CF05EF892
:10C7F000494935480CF05AF8324933480CF056F89C
:10C80000642015F0BDFE314803210BF09AFD3B7802
:10C810004BB12F4B1B7833B94049334808F060FDCA
:10C82000314800F077FA3E4A137803F0FF040BB367
:10C830000023137019461A460093B7EE000A2E48DB
:10C8400000F086FF2C4801F063F804902A4801F0BC
:10C8500061F84FF001080723CDE9008302460499EF
:10C86000264843460BF062FB08B9287066E785F856
:10C870000080A2E7012479E72A488CE72A491A4870
:10C8800008F004FD184800F045FA00F0D7FA3388A4
:10C89000002101332320338006B0BDE8F0410CF0C5
:10C8A000B8B800BFCDD4002038D60020CCA20020DC
:10C8B000CCD4002057EA060048EA060090DE0020AB
:10C8C00032FB06005C330700F4DE002071DF00203D
:10C8D00018D600203FFB060048D600204CD600208A
:10C8E00044D6002049FB0600D3D4002040D60020C7
:10C8F00050D6002059FB0600C4D40020A9DF002038
:10C90000ECD5002044EA06005CEA060094FB060031
:10C91000F0D700203AD600206BFB06007CFB060017
:10C92000C1D40020AAFB0600BDFB060010B5054CD3
:10C93000204601F051FA2046034A0449BDE8104060
:10C9400007F0CCBE6CD6002090A10020E5E30200E9
:10C950000020704738B590F8333004460D4613B1C7
:10C96000406B0BF0E7FE94F83010606B0BF020FF8B
:10C97000606B802100F02DF8606B036829461B680E
:10C980009847606B0121BDE838400BF01DBF0000E7
:10C9900010B5034B0360044606F030FD204610BD81
:10C9A00010FD060010B50446406B0BF0C3FE606B33
:10C9B00002490BF0D3FE012010BD00BF801A060013
:10C9C00010B50446FFF7E4FF20460AF0B3F920460D
:10C9D00010BD0368C9B21B6818472DE9F84F90F8DD
:10C9E0003330044613B1406B0BF0A4FE658AC5F1E9
:10C9F00080054FF0000A05EBD575FF276D10D14675
:10CA0000D0463E46A38A5FFA8AF1B1EBD30F28DA0B
:10CA10004FF0000C638A5FFA8CF098421CDA11FB2D
:10CA200003F30344A2689BB212F803E0E26812F831
:10CA300003B0F3450BD08E4228BF0E46884538BF61
:10CA40008846874228BF0746814538BF814602F89D
:10CA500003E00CF1010CDDE70BF07BFC0AF1010AAD
:10CA6000D0E7FF2E57D0236821219B6920469847A5
:10CA7000236857FA85F19B69C9B2204698475FFA47
:10CA800085FA23680AEB09019B69C9B220469847D9
:10CA9000236822219B6920469847236831469B6979
:10CAA00020469847236841469B69204698470025C1
:10CAB000B04529D3BA46CA4521D845B994F83010B3
:10CAC000606B0BF075FE606B4021FFF782FFA26880
:10CAD000606B638A06FB0323026813F80A1012686E
